:020000040000FA
:0600000059EF01F01200AF
:020006000000F8
:08000800946A956A74D8010E98
:10001000E66E1BD8E552D60EE66E020EE66E84D86A
:10002000E552E552C00EE66E10D8E552CE0EE66EF1
:10003000020EE66E79D8E552E552C80EE66EE66A23
:1000400095D8E552E552E3D71200D9CFE6FFE1CFCC
:10005000D9FFE652FE0EDB50F00BDF6EDF50836EF1
:10006000829082928284640EE66EE66A7FD8E552C0
:10007000E5528294FE0EDB500F0BDF6EDF38F00B83
:10008000DF6EDF50836E8284640EE66EE66A6ED8A1
:10009000E552E5528294E552E552E7CFD9FF1200CE
:1000A000D9CFE6FFE1CFD9FFE652FE0EDB50F00BD1
:1000B000DF6EDF50836E828082928284640EE66EF1
:1000C000E66A54D8E552E5528294FE0EDB500F0BDF
:1000D000DF6EDF38F00BDF6EDF50836E8284640EDC
:1000E000E66EE66A43D8E552E5528294E552E5525F
:1000F000E7CFD9FF1200020EE66EA7DFE552280E09
:10010000E66EA3DFE5520E0EE66E9FDFE552010EAE
:10011000E66E9BDFE552060EE66E97DFE552800E37
:10012000E66E93DFE5521200D9CFE6FFE1CFD9FFAB
:10013000FD0EDBCFF6FFFE0EDBCFF7FF0800F5501C
:1001400011E0FD0EDBCFF6FFFE0EDBCFF7FF080060
:10015000F550E66EA5DFE552FD0EDB2AFE0E01E34B
:10016000DB2AE6D7E552E7CFD9FF1200D9CFE6FF69
:10017000E1CFD9FF040EE126DE6ADD6ADECF00F0B2
:10018000DDCF01F0FD0EDBCF02F0FE0EDBCF03F082
:1001900001500318E8AE02D0033404D00250005CD2
:1001A000035001581DE2020EDB6A030EDB6A020EE9
:1001B000DBCF00F0030EDBCF01F0D890015004E656
:1001C000FF0E005C000E015806E2020EDB2A030E51
:1001D00001E3DB2AECD7DF2A010E01E3DB2ACED7CD
:1001E000040EE15C02E2E16AE552E16EE552E7CF1E
:0401F000D9FF120021
:0C01F400060EF66E000EF76E000EF86EA0
:1002000000010900F550656F0900F550666F03E1C4
:10021000656701D03DD00900F550606F0900F550C9
:10022000616F0900F550626F09000900F550E96E31
:100230000900F550EA6E090009000900F550636FE6
:100240000900F550646F09000900F6CF67F0F7CF99
:1002500068F0F8CF69F060C0F6FF61C0F7FF62C0D8
:10026000F8FF0001635302E1645307E00900F55011
:10027000EE6E6307F8E26407F9D767C0F6FF68C05F
:10028000F7FF69C0F8FF00016507000E665BBFD786
:0202900012005A
:0E029200000EF36E00EE00F0060E01D8120012
:1002A000EA6002D0EE6AFCD7F350E9601200EE6A11
:0202B000FCD779
:0E02B20015EE00F025EE00F0F86A059CFAEC5F
:0E02C00000F06FEC01F004EC00F0FBD7120030
:0202CE0073615A
:0E02D0006C6F6B68650075746B61727368000B
:0202DE0012000C
:00000001FF
