:020000040000FA
:0600000089EF01F012007F
:020006000000F8
:08000800D9CFE6FFE1CFD9FFDB
:10001000120EE126D9CFE9FFDACFEAFF550EEE6ED8
:10002000740EEE6E6B0EEE6E610EEE6E720EEE6E76
:10003000730EEE6E680EEE6EEE6AD950080FE96E22
:10004000DACFEAFF730EEE6E610EEE6E6C0EEE6EA0
:100050006F0EEE6E6B0EEE6E680EEE6E650EEE6E51
:10006000EE6A946A956A9DD8010EE66E70D8E552E4
:10007000E80EE66E030EE66EA9D8E552E552100EC4
:10008000DB6A110EDB6AD9CF00F0DACF01F0100E77
:10009000DB500024E96E110EDB500120EA6EEF50B8
:1000A00016E0D9CF00F0DACF01F0100EDB500024BB
:1000B000E96E110EDB500120EA6EEF50E66E5CD85F
:1000C000E552100EDB2A110E01E3DB2ADCD7C00E4D
:1000D000E66E3DD8E552100EDB6A110EDB6AD95090
:1000E000080F006EDACF01F0100EDB500024E96E2D
:1000F000110EDB500120EA6EEF5017E0D950080FC7
:10010000006EDACF01F0100EDB500024E96E110E04
:10011000DB500120EA6EEF50E66E2ED8E552100E4D
:10012000DB2A110E01E3DB2ADAD7D00EE66E070ECA
:10013000E66E4CD8E552E55297D7120EE15C02E22A
:10014000E16AE552E16EE552E7CFD9FF1200D9CF5F
:10015000E6FFE1CFD9FFFE0EDB50836E82908292E4
:100160008284640EE66EE66A31D8E552E5528294E6
:10017000E552E7CFD9FF1200D9CFE6FFE1CFD9FF93
:10018000FE0EDB50836E828082928284640EE66E65
:10019000E66A1CD8E552E5528294E552E7CFD9FFD2
:1001A0001200380EE66ED3DFE5520E0EE66ECFDF9C
:1001B000E552010EE66ECBDFE552060EE66EC7DFB6
:1001C000E552800EE66EC3DFE5521200D9CFE6FF9E
:1001D000E1CFD9FF040EE126DE6ADD6ADECF00F052
:1001E000DDCF01F0FD0EDBCF02F0FE0EDBCF03F022
:1001F00001500318E8AE02D0033404D00250005C72
:10020000035001581DE2020EDB6A030EDB6A020E88
:10021000DBCF00F0030EDBCF01F0D890015004E6F5
:10022000FF0E005C000E015806E2020EDB2A030EF0
:1002300001E3DB2AECD7DF2A010E01E3DB2ACED76C
:10024000040EE15C02E2E16AE552E16EE552E7CFBD
:04025000D9FF1200C0
:0C025400060EF66E000EF76E000EF86E3F
:1002600000010900F550656F0900F550666F03E164
:10027000656701D03DD00900F550606F0900F55069
:10028000616F0900F550626F09000900F550E96ED1
:100290000900F550EA6E090009000900F550636F86
:1002A0000900F550646F09000900F6CF67F0F7CF39
:1002B00068F0F8CF69F060C0F6FF61C0F7FF62C078
:1002C000F8FF0001635302E1645307E00900F550B1
:1002D000EE6E6307F8E26407F9D767C0F6FF68C0FF
:1002E000F7FF69C0F8FF00016507000E665BBFD726
:0202F0001200FA
:0E02F200000EF36E00EE00F0060E01D81200B2
:10030000EA6002D0EE6AFCD7F350E9601200EE6AB0
:02031000FCD718
:0E03120015EE00F025EE00F0F86A059C2AECCE
:0E03200001F097EC01F004EC00F0FBD71200A6
:02032E001200BB
:00000001FF
