:020000040000FA
:060000002AEF01F01200DE
:020006000000F8
:08000800D9CFE6FFE1CFD9FFDB
:10001000040EE126DE6ADD6ADECF00F0DDCF01F0FE
:10002000D890015004E6FF0E005C000E015824E257
:10003000020EDB6A030EDB6A020EDBCF00F0030E5A
:10004000DBCF01F0DECF02F0DDCF03F0015003186B
:10005000E8AE02D0033404D00250005C03500158D3
:1000600006E2020EDB2A030E01E3DB2AE5D7DF2AD4
:10007000010E01E3DB2AD0D7040EE15C02E2E16A63
:10008000E552E16EE552E7CFD9FF1200946A956A16
:100090001200D9CFE6FFE1CFD9FFFE0EDB50836E11
:1000A000829082928284640EE66EE66AADDFE5524B
:1000B000E5528294E552E7CFD9FF1200D9CFE6FF8F
:1000C000E1CFD9FFFE0EDB50836E82808292828464
:1000D000640EE66EE66A98DFE552E5528294E552D8
:1000E000E7CFD9FF1200D2DF140EE66EE66A8CDF8E
:1000F000E552E552380EE66ECCDFE5520E0EE66EA6
:10010000C8DFE552010EE66EC4DFE552060EE66E6C
:10011000C0DFE552800EE66EBCDFE552750EE66E7E
:10012000CDDFE552540EE66EC9DFE5524B0EE66EAA
:10013000C5DFE552410EE66EC1DFE552520EE66EB6
:10014000BDDFE552530EE66EB9DFE552480EE66EAE
:10015000B5DFE552C00EE66E9CDFE552530EE66E4B
:10016000ADDFE552410EE66EA9DFE5524C0EE66EBC
:10017000A5DFE5524F0EE66EA1DFE5524B0EE66EAF
:100180009DDFE552480EE66E99DFE552450EE66EBC
:0601900095DFE5521200AC
:0A019600060EF66E000EF76E000E66
:1001A000F86E00010900F550656F0900F550666FA3
:1001B00003E1656701D03DD00900F550606F09008B
:1001C000F550616F0900F550626F09000900F550A4
:1001D000E96E0900F550EA6E090009000900F550C2
:1001E000636F0900F550646F09000900F6CF67F0EE
:1001F000F7CF68F0F8CF69F060C0F6FF61C0F7FF95
:1002000062C0F8FF0001635302E1645307E0090094
:10021000F550EE6E6307F8E26407F9D767C0F6FFA2
:1002200068C0F7FF69C0F8FF00016507000E665B54
:04023000BFD7120022
:0C023400000EF36E00EE00F0060E01D884
:100240001200EA6002D0EE6AFCD7F350E9601200B7
:04025000EE6AFCD77F
:0C02540015EE00F025EE00F0F86A059CA5
:10026000CBEC00F038EC01F073EC00F0FBD712009F
:0202700012007A
:00000001FF
